:020000040000FA
:0400000098EF3FF046
:107F300000019BEF3FF0000E0F01386F000E396F0C
:107F4000000E3A6F94969392949A94988B8A8B88A9
:107F50008A828B86000E036E000E026E03BEBAEF9D
:107F60003FF0E80E025C030E0358D8A0BAEF3FF0D2
:107F7000BCEF3FF0C0EF3FF0FEEF3FF0FEEF3FF011
:107F80008B888B9A8A92340E016EF20EE82EFED701
:107F9000012EFCD78A82340E016EF20EE82EFED737
:107FA000012EFCD78B96340E016EF20EE82EFED712
:107FB000012EFCD78B86340E016EF20EE82EFED712
:107FC000012EFCD78B988B8A9C0E016ED70EE82E63
:107FD000FED7012EFCD700F0024A032A03BEFAEFB7
:107FE0003FF0E80E025C030E0358D8A0FAEF3FF012
:107FF000FCEF3FF0C0EF3FF0FEEF3FF000EF00F08E
:020000040020DA
:08000000FFFFFFFFFFFFFFFF00
:020000040030CA
:0E000000FF081F3CFFBF81FF0FC00FE00F4045
:00000001FF
